:100000000C9429010C944A010C944A010C944A0165
:100010000C944A010C944A010C944A010C944A0134
:100020000C944A010C944A010C944A010C944A0124
:100030000C944A010C944A010C944A010C944A0114
:100040000C944A010C944A010C944A010C944A0104
:100050000C944A010C944A010C944A010C949B01A3
:100060000C944A010C944A010C944A010C944A01E4
:100070000C944A010C944A010C944A010C944A01D4
:100080000C944A010C944A010C944A010C944A01C4
:100090000C944A010C944A010C944A010C944A01B4
:1000A0000C944A010C944A010C944A010C944A01A4
:1000B0000C944A010C944A010C944A010C944A0194
:1000C0000C944A010C944A010C944A010C944A0184
:1000D0000C944A010C944A010C944A010C944A0174
:1000E0000C944A01AB02AE029D02A102A702E502F6
:1000F000B202B602BC02C002C402CA02CE02D202DE
:10010000E502D802DC02E0020C94AB020C94AE02D1
:100110000C94B2020C94C0020C94DC020C94CA023F
:100120000C94E5020C94B6020C94A1020C94C40247
:100130000C94D8020C94BC020C94A7020C94D2022A
:100140000C94E0020C949D020C94CE0200000A0B69
:1001500002090C0D0E080703040100000000000056
:10016000000000000000000000000000000000008F
:10017000000000000000000012111000000000004C
:10018000000000000000000000000000000000006F
:10019000000001021020200808102040102040809C
:1001A000020102010804020101020408102040803B
:1001B00080402010080402018004020180402010C9
:1001C0000804020108040201010204081020408012
:1001D00001020408102040800505050507050808F0
:1001E0000808020202020A0A0808040404040101C1
:1001F00001010101010103030303030303030407D6
:1002000007070C0C0C0C0C0C0C0C0202020206066C
:100210000606060606060B0B0B0B0B0B0B0B000062
:100220002200250028002B002E003100340002019E
:100230000000050108010B01000021002400270037
:100240002A002D00300033000101000004010701E5
:100250000A0111241FBECFEFD1E2DEBFCDBF00E007
:100260000CBF12E0A0E0B2E0ECEDF6E000E00BBF66
:1002700002C007900D92A230B107D9F722E0A2E0A8
:10028000B2E001C01D92AB30B207E1F70E94560305
:100290000C946C030C94000061E080E40E94E60280
:1002A00061E081E40E94E60261E082E40E94E602ED
:1002B00061E083E40E94E60261E084E40E94E602D9
:1002C00061E085E40C94E602CF93DF93C0E4D0E0D4
:1002D00061E08C2F0E941F0360E0809100020E9469
:1002E0001F03D0930102C09300026BE470E080E032
:1002F00090E00E9408022196C634D10549F7C5E472
:10030000D0E061E08C2F0E941F0360E0809100022A
:100310000E941F03D0930102C09300026BE470E0BF
:1003200080E090E00E9408022197CF33D10549F781
:10033000DF91CF9108951F920F920FB60F92112463
:100340002F933F938F939F93AF93BF93809103021B
:1003500090910402A0910502B09106023091020230
:1003600023E0230F2D3720F40196A11DB11D05C0F8
:1003700026E8230F0296A11DB11D2093020280934F
:10038000030290930402A0930502B09306028091A9
:10039000070290910802A0910902B0910A02019609
:1003A000A11DB11D8093070290930802A09309023A
:1003B000B0930A02BF91AF919F918F913F912F917E
:1003C0000F900FBE0F901F9018953FB7F894809133
:1003D000070290910802A0910902B0910A0226B585
:1003E000A89B05C02F3F19F00196A11DB11D3FBF6D
:1003F0006627782F892F9A2F620F711D811D911DFD
:1004000042E0660F771F881F991F4A95D1F708951C
:10041000CF92DF92EF92FF92CF93DF936B017C013B
:100420000E94E501EB01C114D104E104F10489F05B
:100430000E9465030E94E5016C1B7D0B683E7340C2
:1004400090F381E0C81AD108E108F108C851DC4FE7
:10045000EACFDF91CF91FF90EF90DF90CF9008959A
:10046000789484B5826084BD84B5816084BD85B58F
:10047000826085BD85B5816085BDEEE6F0E0808156
:1004800081608083E1E8F0E0108280818260808377
:10049000808181608083E0E8F0E0808181608083FA
:1004A000E1EBF0E0808184608083E0EBF0E080812C
:1004B00081608083E1E9F0E08081826080838081D7
:1004C00081608083E0E9F0E0808181608083E1EAFF
:1004D000F0E0808182608083808181608083E0EAB7
:1004E000F0E0808181608083E1E2F1E080818260E0
:1004F0008083808181608083E0E2F1E0808181609F
:100500008083EAE7F0E0808184608083808182607C
:100510008083808181608083808180688083109265
:10052000C100089590E0FC013197E231F10508F037
:100530004CC0EE58FF4F0C946603809180008F777B
:1005400003C0809180008F7D80938000089580910A
:100550008000877FF9CF84B58F7702C084B58F7D07
:1005600084BD08958091B0008F7703C08091B00062
:100570008F7D8093B0000895809190008F7707C0A1
:10058000809190008F7D03C080919000877F809341
:10059000900008958091A0008F7707C08091A000FF
:1005A0008F7D03C08091A000877F8093A000089575
:1005B000809120018F7707C0809120018F7D03C03B
:1005C00080912001877F809320010895CF93DF934E
:1005D00090E0FC01EE56FE4F2491FC01E852FE4FE4
:1005E0008491882349F190E0880F991FFC01E85C11
:1005F000FD4FA591B491825E9D4FFC01C591D491B0
:100600009FB7611108C0F8948C91209582238C9338
:10061000888182230AC0623051F4F8948C91322F81
:10062000309583238C938881822B888304C0F8942F
:100630008C91822B8C939FBFDF91CF9108950F9364
:100640001F93CF93DF931F92CDB7DEB7282F30E0F3
:10065000F901E45BFE4F8491F901EE56FE4F1491CF
:10066000F901E852FE4F04910023C9F0882321F0DC
:1006700069830E9492026981E02FF0E0EE0FFF1F74
:10068000E25EFD4FA591B4919FB7F8948C916111F2
:1006900003C01095812301C0812B8C939FBF0F90C5
:1006A000DF91CF911F910F91089508950E9430021C
:1006B0000E9455030E944C01C0E0D0E00E946401FA
:1006C0002097E1F30E940000F9CF0895EE0FFF1F7D
:0C06D0000590F491E02D1994F894FFCFF0
:0206DC004500D7
:00000001FF
