:100000000C943D010C946E010C946E010C946E01E5
:100010000C946E010C946E010C946E010C946E01A4
:100020000C946E010C946E010C946E010C946E0194
:100030000C946E010C946E010C946E010C946E0184
:100040000C946E010C946E010C946E010C946E0174
:100050000C946E010C946E010C946E010C944C0582
:100060000C946E010C946E010C946E010C946E0154
:100070000C946E010C946E010C946E010C946E0144
:100080000C946E010C946E010C946E010C946E0134
:100090000C946E010C946E010C946E010C946E0124
:1000A0000C946E010C946E010C946E010C946E0114
:1000B0000C946E010C946E010C946E010C946E0104
:1000C0000C946E010C946E010C946E010C946E01F4
:1000D0000C946E010C946E010C946E010C946E01E4
:1000E0000C946E018C068F067E0682068806C60674
:1000F000930697069D06A106A506AB06AF06B306B6
:10010000C606B906BD06C1060C9488060C947E0688
:100110000C94B3060C9446050C946F070C94AF0630
:100120000C9493060C9497060C94A1060C94C606A6
:100130000C9482060C9484030C948C060C949D06FB
:100140000C94A5060C94B9060C94C1060C94AB064D
:100150000C948F060C94BD0600000A0B02090C0DCE
:100160000E0807030401000000000000000000006A
:10017000000000000000000000000000000000007F
:10018000000000001211100000000000000000003C
:10019000000000000000000000000000000001025C
:1001A0001020200808102040102040800201020189
:1001B0000804020101020408102040808040201041
:1001C000080402018004020180402010080402019A
:1001D0000804020101020408102040800102040802
:1001E00010204080050505050705080808080202DB
:1001F00002020A0A080804040404010101010101C1
:1002000001010303030303030303040707070C0CA3
:100210000C0C0C0C0C0C020202020606060606066A
:1002200006060B0B0B0B0B0B0B0B00002000230027
:10023000260029002C002F003200000100000301DD
:100240000601090100002200250028002B002E00D5
:100250003100340002010000050108010B0100001B
:100260002100240027002A002D0030003300010166
:100270000000040107010A01840311241FBECFEF0F
:10028000D1E2DEBFCDBF00E00CBF12E0A0E0B2E0E3
:10029000E0E4F6E100E00BBF02C007900D92AA3146
:1002A000B107D9F722E0AAE1B2E001C01D92AD3456
:1002B000B207E1F712E0CAE7D2E000E006C02297F9
:1002C0000109FE010BBF0E94C508C837D10780E0B5
:1002D0000807A9F70E9460070C941E0B0C940000FD
:1002E00062E083E00E94C70662E082E00E94C706E7
:1002F00062E085E10E94C70661E080E40E94C706D3
:1003000061E081E40E94C70661E082E40E94C706C2
:1003100061E083E40E94C70661E084E40E94C706AE
:1003200061E085E40E94C70681E00E944E0690933A
:100330003B0280933A0280E00E944E06909339027D
:100340008093380220E042E060E18AE192E00C9480
:10035000650480913C0290913D02209138023091D9
:100360003902821B930B9C0197FF04C0222733277D
:10037000281B390BE0913E02F0913F0260913A0256
:1003800070913B0225363105A4F0AF01461B570B97
:1003900057FF03C0519541955109421753074CF43B
:1003A000181619061CF48FEF9FEF18C081E090E03B
:1003B00015C0CF01861B970BAC0197FF04C04427E3
:1003C0005527481B590B4536510584F0241735072E
:1003D0006CF4181619063CF484E090E09093370210
:1003E0008093360207C08CEF9FEFF8CF1092370250
:1003F000109236028091060290910702FC01E85F9C
:10040000FD4F209136023081230F253B08F024EB6D
:10041000208361E0805C0E9400078091340260E0EC
:10042000805C0E94000764E670E080E090E00C943D
:10043000B905CF93DF93CDB7DEB72C970FB6F894FD
:10044000DEBF0FBECDBF40E060E08AE192E00E94D7
:100450004B044AE060910802CE0107960E944B08C7
:10046000BE01695F7F4FCE0101960E942A086FE0AE
:1004700072E0CE0101960E94A408BC018AE192E0DC
:100480000E949707CE0101960E94A507CE0107960C
:100490000E94A50740E065E08AE192E00E944B04DB
:1004A0004AE060910902CE0107960E944B08BE0106
:1004B000695F7F4FCE0101960E942A086FE072E0CB
:1004C000CE0101960E94A408BC018AE192E00E943C
:1004D0009707CE0101960E94A507CE0107960E94BC
:1004E000A50740E06AE08AE192E00E944B044AE0FE
:1004F00060910A02CE0107960E944B08BE01695F17
:100500007F4FCE0101960E942A086FE072E0CE0173
:1005100001960E94A408BC018AE192E00E9497071C
:10052000CE0101960E94A507CE0107960E94A5075D
:1005300041E060E08AE192E00E944B044AE0609171
:100540000B02CE0107960E944B08BE01695F7F4FE8
:10055000CE0101960E942A086FE072E0CE0101965A
:100560000E94A408BC018AE192E00E949707CE0194
:1005700001960E94A507CE0107960E94A50741E0BB
:1005800065E08AE192E00E944B044AE060910C022F
:10059000CE0107960E944B08BE01695F7F4FCE01D6
:1005A00001960E942A086FE072E0CE0101960E9437
:1005B000A408BC018AE192E00E949707CE0101964F
:1005C0000E94A507CE0107960E94A50741E06AE0B8
:1005D0008AE192E00E944B044AE060910D02CE0154
:1005E00007960E944B08BE01695F7F4FCE010196BE
:1005F0000E942A086FE072E0CE0101960E94A408D2
:10060000BC018AE192E00E949707CE0101960E9408
:10061000A507CE0107960E94A50781E00E944E061D
:1006200090933F0280933E0280E00E944E0690939A
:100630003D0280933C0283E00E943607892B31F40F
:100640008091320290913302019771F082E00E9412
:100650003607892B09F051C0809132029091330204
:10066000019709F04AC01AC0109233021092320268
:100670008091060290910702909335028093340294
:100680000197909307028093060297FF1EC085E0B2
:1006900090E0909307028093060217C010923302F5
:1006A00010923202809106029091070290933502D7
:1006B0008093340201969093070280930602069776
:1006C00024F0109207021092060285E10E9436077C
:1006D000892B41F4E0910602F0910702E85FFD4F9B
:1006E0008AE580830E94A9012C960FB6F894DEBF9C
:1006F0000FBECDBFDF91CF91089581E090E0909340
:10070000330280933202E1CFAF92CF92EF920F93F8
:1007100084E1A82E93E1C92E22E1E22E01E120E13D
:100720004FE06EE08AE192E00E9420050F91EF9089
:10073000CF90AF900895CF93DF93EC0160E08E816E
:100740000E94000781E090E00E94E10561E08E8157
:100750000E94000781E090E00E94E10560E08E8148
:100760000E94000784E690E0DF91CF910C94E105B0
:10077000CF92DF92EF92FF920F931F93CF93DF936D
:100780007C01C0E0D0E0C62ED12C87010C0F1D1FCC
:1007900061E0F80187810E94C706B6010C2E02C0F5
:1007A000759567950A94E2F76170F80187810E9458
:1007B00000072196C430D10541F7C701DF91CF91E1
:1007C0001F910F91FF90EF90DF90CF900C949B03BF
:1007D000CF92DF92EF92FF920F931F93CF93DF930D
:1007E0007C01C0E0D0E0C62ED12C87010C0F1D1F6C
:1007F00061E0F80187810E94C706B6010C2E02C095
:10080000759567950A94E2F76170F80187810E94F7
:1008100000072196C830D10541F7C701DF91CF917C
:100820001F910F91FF90EF90DF90CF900C949B035E
:100830001F93CF93DF93EC01162F642F8C810E94BE
:1008400000078D818F3F19F060E00E9400078F85BF
:10085000612F84FF06C0CE01DF91CF911F910C94D0
:10086000E80370E084E0759567958A95E1F7CE011D
:100870000E94B803612FCE01DF91CF911F910C949C
:10088000B80340E00C94180461E00E94410480ED3C
:1008900097E00C94E105443008F043E0FC01238923
:1008A000421710F04FEF420FFC01E40FF11D2489B5
:1008B000260F2068622F0C944104FC016089262FCA
:1008C0002460208B6C600C944104CF93DF93EC0187
:1008D000423018F08F8588608F874B8B1C8A80E4AC
:1008E0008D8B6E8B70E0605C7F4F6F8B222329F0C5
:1008F000413019F48F8584608F8780E593EC0E94E6
:10090000E10560E08C810E94000760E08E810E941A
:1009100000078D818F3F19F060E00E9400076F850E
:1009200064FD1DC063E0CE010E94B80384E991E13B
:100930000E94E10563E0CE010E94B80384E991E1E1
:100940000E94E10563E0CE010E94B80386E990E0D1
:100950000E94E10562E0CE010E94B80316C0606209
:10096000CE010E94410484E991E10E94E1056F8576
:100970006062CE010E94410486E990E00E94E10598
:100980006F856062CE010E9441046F856062CE0176
:100990000E94410484E0888BCE010E945D04CE0158
:1009A0000E94440482E0898B66E0CE01DF91CF9102
:1009B0000C9441046F927F928F92AF92CF92EF92FC
:1009C0000F931F93CF93DF93CDB7DEB73C01162F64
:1009D000842F5E854F8538899989F3018483258327
:1009E0000683E782C086A18682865387448735873F
:1009F000968761E00E94C706F30185818F3F19F059
:100A000061E00E94C70661E0F30186810E94C7068B
:100A1000112319F0F301178603C080E1F3018787E2
:100A200020E041E060E1C301DF91CF911F910F9180
:100A3000EF90CF90AF908F907F906F900C94650463
:100A40008F92AF92CF92EF920F93DC0113961C928C
:100A50001E921297E6E1F2E0ED93FC931F921F9233
:100A60001F921F928A2CAC2CCE2CE02E022F242F0A
:100A7000462F61E00E94DA040F900F900F900F90C4
:100A80000F91EF90CF90AF908F90089541E00E942A
:100A9000180481E090E008951F920F920FB60F9214
:100AA00011242F933F938F939F93AF93BF93809184
:100AB000410290914202A0914302B09144023091D0
:100AC000400223E0230F2D3720F40196A11DB11D14
:100AD00005C026E8230F0296A11DB11D20934002F8
:100AE0008093410290934202A0934302B093440248
:100AF0008091450290914602A0914702B091480230
:100B00000196A11DB11D8093450290934602A093CA
:100B10004702B0934802BF91AF919F918F913F914F
:100B20002F910F900FBE0F901F9018953FB7F8941C
:100B30008091450290914602A0914702B0914802EF
:100B400026B5A89B05C02F3F19F00196A11DB11D28
:100B50003FBF6627782F892F9A2F620F711D811D45
:100B6000911D42E0660F771F881F991F4A95D1F7A4
:100B70000895CF92DF92EF92FF92CF93DF936B01B4
:100B80007C010E949605EB01C114D104E104F1043B
:100B900089F00E94BE080E9496056C1B7D0B683E82
:100BA000734090F381E0C81AD108E108F108C851F8
:100BB000DC4FEACFDF91CF91FF90EF90DF90CF90A5
:100BC00008958230910538F0880F991F880F991F7A
:100BD00005970197F1F70895789484B5826084BDF4
:100BE00084B5816084BD85B5826085BD85B5816031
:100BF00085BDEEE6F0E0808181608083E1E8F0E091
:100C00001082808182608083808181608083E0E8BF
:100C1000F0E0808181608083E1EBF0E0808184609E
:100C20008083E0EBF0E0808181608083E1E9F0E0A7
:100C3000808182608083808181608083E0E9F0E050
:100C4000808181608083E1EAF0E08081826080833E
:100C5000808181608083E0EAF0E080818160808330
:100C6000E1E2F1E080818260808380818160808325
:100C7000E0E2F1E0808181608083EAE7F0E080815A
:100C800084608083808182608083808181608083B2
:100C90008081806880831092C1000895863308F0B7
:100CA000865320917B00982F9870277F922B9093EA
:100CB0007B00877020910E0290E4299F90011124FF
:100CC000822B80937C0080917A00806480937A00EC
:100CD00080917A0086FDFCCF809178002091790088
:100CE00090E0922B089590E0FC013197E231F105FC
:100CF00008F04CC0EE58FF4F0C94BF088091800064
:100D00008F7703C0809180008F7D8093800008954D
:100D100080918000877FF9CF84B58F7702C084B53A
:100D20008F7D84BD08958091B0008F7703C080913E
:100D3000B0008F7D8093B0000895809190008F77F0
:100D400007C0809190008F7D03C080919000877FC5
:100D50008093900008958091A0008F7707C08091C4
:100D6000A0008F7D03C08091A000877F8093A000AA
:100D70000895809120018F7707C0809120018F7D99
:100D800003C080912001877F809320010895CF9335
:100D9000DF9390E0FC01E256FE4F2491FC01EC5100
:100DA000FE4F8491882349F190E0880F991FFC0140
:100DB000E25AFD4FA591B4918C5B9D4FFC01C5910A
:100DC000D4919FB7611108C0F8948C91209582232B
:100DD0008C93888182230AC0623051F4F8948C91FC
:100DE000322F309583238C938881822B888304C093
:100DF000F8948C91822B8C939FBFDF91CF910895B3
:100E00000F931F93CF93DF931F92CDB7DEB7282F99
:100E100030E0F901E85AFE4F8491F901E256FE4FA5
:100E20001491F901EC51FE4F04910023C9F088237D
:100E300021F069830E9473066981E02FF0E0EE0FD4
:100E4000FF1FEC5BFD4FA591B4919FB7F8948C9177
:100E5000611103C01095812301C0812B8C939FBF2A
:100E60000F90DF91CF911F910F910895CF93DF9352
:100E7000282F30E0F901E85AFE4F8491F901E2563B
:100E8000FE4FD491F901EC51FE4FC491CC2391F067
:100E900081110E947306EC2FF0E0EE0FFF1FE65D5C
:100EA000FD4FA591B4912C912D2381E090E021F488
:100EB00080E002C080E090E0DF91CF910895089536
:100EC0000E94EC050E945F070E947001C0E0D0E024
:100ED0000E9419022097E1F30E940000F9CFCF92FF
:100EE000DF92EF92FF920F931F93CF93DF936C01EA
:100EF0007A01EB01E60EF71E00E010E0CE15DF05EB
:100F000061F06991D601ED91FC910190F081E02DA5
:100F1000C6011995080F191FF1CFC801DF91CF91B4
:100F20001F910F91FF90EF90DF90CF900895DC011B
:100F3000ED91FC91DB0114964D915C9115976D91AB
:100F40007C910280F381E02D1994FC0180819181D4
:100F50000C946109CF93DF93EC018881998100970C
:100F600011F00E946109198218821D821C821B8265
:100F70001A82DF91CF9108950F931F93CF93DF9340
:100F8000EC018B016F5F7F4F888199810E94F0098E
:100F9000009731F0998388831B830A8381E001C025
:100FA00080E0DF91CF911F910F910895CF93DF9350
:100FB000EC0188819981892B29F08A819B81861790
:100FC000970760F4CE010E94BC07882341F08C8112
:100FD0009D81892B19F4E881F981108281E0DF91EC
:100FE000CF910895EF92FF920F931F93CF93DF93CA
:100FF000EC017B018A01BA010E94D607811104C06D
:10100000CE010E94AA0707C01D830C83B701888107
:1010100099810E94E20ACE01DF91CF911F910F9139
:10102000FF90EF900895CF93DF93EC01FB018617BB
:10103000970761F0608171816115710529F0448124
:1010400055810E94F20702C00E94AA07CE01DF91DB
:10105000CF910895FC0111821082138212821582B1
:1010600014820C941308CF93DF93EC016115710582
:1010700061F0FB0101900020E9F7AF0141505109F7
:10108000461B570B0E94F20702C00E94AA07CE011E
:10109000DF91CF9108950F931F93CF93DF93CDB737
:1010A000DEB729970FB6F894DEBF0FBECDBF8C0117
:1010B000862FF80111821082138212821582148207
:1010C00050E0BE016F5F7F4F90E00E94E90ABE01D1
:1010D0006F5F7F4FC8010E94330829960FB6F894BE
:1010E000DEBF0FBECDBFDF91CF911F910F9108954D
:1010F000EF92FF920F931F93CF93DF93EC017B014D
:101100000C811D816115710511F480E016C0411537
:10111000510591F0040F151FB8010E94D6078823CE
:10112000A1F3288139818C819D81B701820F931FA2
:101130000E94E20A1D830C8381E0DF91CF911F9111
:101140000F91FF90EF900895CF93DF93EC0161151D
:10115000710569F0FB0101900020E9F7AF014150F2
:101160005109461B570B0E947808811103C0CE011C
:101170000E94AA07CE01DF91CF9108950895EE0F46
:10118000FF1F0590F491E02D19940790F691E02D42
:101190001994CF93DF938230910510F482E090E0B0
:1011A000E0914B02F0914C0220E030E0A0E0B0E092
:1011B000309739F14081518148175907B8F04817E5
:1011C000590771F482819381109729F013969C93AB
:1011D0008E9312972CC090934C0280934B0227C0A1
:1011E0002115310531F04217530718F0A901DB0131
:1011F00001C0EF019A01BD01DF010280F381E02D02
:10120000D7CF21153105F9F0281B390B24303105D2
:1012100080F48A819B816115710521F0FB01938324
:10122000828304C090934C0280934B02FE0132965D
:1012300044C0FE01E20FF31F8193919322503109C4
:10124000398328833AC02091490230914A02232BE6
:1012500041F4209102023091030230934A0220931C
:10126000490220910002309101022115310541F41B
:101270002DB73EB74091040250910502241B350B57
:10128000E0914902F0914A02E217F307A0F42E1B05
:101290003F0B2817390778F0AC014E5F5F4F2417DA
:1012A000350748F04E0F5F1F50934A0240934902A2
:1012B0008193919302C0E0E0F0E0CF01DF91CF9104
:1012C0000895CF93DF93009709F487C0FC0132970C
:1012D00013821282C0914B02D0914C02209781F46C
:1012E00020813181280F391F8091490290914A0253
:1012F0008217930779F5F0934A02E09349026DC093
:10130000DE0120E030E0AE17BF0750F412964D9199
:101310005C9113979D014115510509F1DA01F3CF55
:10132000B383A28340815181840F951F8A179B0745
:1013300071F48D919C911197840F951F0296918362
:10134000808312968D919C911397938382832115AC
:10135000310529F4F0934C02E0934B023EC0D901D1
:101360001396FC93EE9312974D915D91A40FB51FC8
:10137000EA17FB0779F480819181840F951F02960B
:10138000D90111969C938E938281938113969C939D
:101390008E931297E0E0F0E08A819B81009719F02C
:1013A000FE01EC01F9CFCE01029628813981820F2E
:1013B000931F2091490230914A022817390769F496
:1013C000309729F410924C0210924B0202C0138203
:1013D0001282D0934A02C0934902DF91CF910895BF
:1013E0006F927F928F929F92AF92BF92CF92DF9235
:1013F000EF92FF920F931F93CF93DF93EC01CB01FA
:10140000209781F4DF91CF911F910F91FF90EF9082
:10141000DF90CF90BF90AF909F908F907F906F9014
:101420000C94C908FE01E60FF71F9E0122503109F6
:10143000E217F30708F4ACC0D9010D911C91119784
:1014400006171707B8F00530110508F49FC0A8016A
:10145000445051094617570708F498C00250110923
:10146000061B170B019311936D937C93CF010E9480
:1014700061098CC05B01A01AB10A4E01800E911E59
:10148000A0914B02B0914C02612C712C60E070E095
:10149000109709F449C0A815B905C9F5ED90FC905D
:1014A0001197670142E0C40ED11CCA14DB0478F125
:1014B00047018A189B08640142E0C40ED11C1296B1
:1014C000BC9012971396AC91B5E0CB16D10440F0C6
:1014D000B282A38391828082D9018D939C9309C0AB
:1014E0000E5F1F4F0E0D1F1DF90111830083EB2DA1
:1014F000FA2F6115710531F0DB011396FC93EE9321
:10150000129744C0F0934C02E0934B023FC06D91A0
:101510007C9111976616770608F43B01BD0112967F
:101520000D90BC91A02DB4CF6091490270914A02F8
:1015300068157905E9F468167906D0F4409100023F
:10154000509101024115510541F44DB75EB76091CC
:10155000040270910502461B570BE417F507C0F40F
:10156000F0934A02E0934902F901918380830EC00F
:101570000E94C9087C01009759F0A801BE010E9491
:10158000D90ACE010E946109C70104C0CE0102C080
:1015900080E090E0DF91CF911F910F91FF90EF904D
:1015A000DF90CF90BF90AF909F908F907F906F9083
:1015B0000895FB01DC0102C001900D9241505040A2
:1015C000D8F70895FB01DC0101900D920020E1F7AE
:1015D00008954532510520F4423010F00C94F40A7D
:1015E000FB011082CB010895BB27FB015527AA27D9
:1015F000880F991FAA1FA41710F0A41B83955051A0
:10160000B9F7A05DAA3308F0A95DA193009779F717
:10161000B111B1931192CB010C940E0BDC01FC01C2
:10162000672F71917723E1F7329704C07C916D9316
:1016300070836291AE17BF07C8F30895F894FFCF87
:1016400000004D02800005005A5A5A5A5A5A012089
:0A16500020000000000046056F07AF
:00000001FF
