:100000000C943D010C946E010C946E010C946E01E5
:100010000C946E010C946E010C946E010C946E01A4
:100020000C946E010C946E010C946E010C946E0194
:100030000C946E010C946E010C946E010C946E0184
:100040000C946E010C946E010C946E010C946E0174
:100050000C946E010C946E010C946E010C946C0562
:100060000C946E010C946E010C946E010C946E0154
:100070000C946E010C946E010C946E010C946E0144
:100080000C946E010C946E010C946E010C946E0134
:100090000C946E010C946E010C946E010C946E0124
:1000A0000C946E010C946E010C946E010C946E0114
:1000B0000C946E010C946E010C946E010C946E0104
:1000C0000C946E010C946E010C946E010C946E01F4
:1000D0000C946E010C946E010C946E010C946E01E4
:1000E0000C946E01AC06AF069E06A206A806E606B4
:1000F000B306B706BD06C106C506CB06CF06D306B6
:10010000E606D906DD06E1060C94A8060C949E06C8
:100110000C94D3060C9466050C948F070C94CF06B0
:100120000C94B3060C94B7060C94C1060C94E60626
:100130000C94A2060C94A4030C94AC060C94BD067B
:100140000C94C5060C94D9060C94E1060C94CB06CD
:100150000C94AF060C94DD0600000A0B02090C0D8E
:100160000E0807030401000000000000000000006A
:10017000000000000000000000000000000000007F
:10018000000000001211100000000000000000003C
:10019000000000000000000000000000000001025C
:1001A0001020200808102040102040800201020189
:1001B0000804020101020408102040808040201041
:1001C000080402018004020180402010080402019A
:1001D0000804020101020408102040800102040802
:1001E00010204080050505050705080808080202DB
:1001F00002020A0A080804040404010101010101C1
:1002000001010303030303030303040707070C0CA3
:100210000C0C0C0C0C0C020202020606060606066A
:1002200006060B0B0B0B0B0B0B0B00002000230027
:10023000260029002C002F003200000100000301DD
:100240000601090100002200250028002B002E00D5
:100250003100340002010000050108010B0100001B
:100260002100240027002A002D0030003300010166
:100270000000040107010A01A40311241FBECFEFEF
:10028000D1E2DEBFCDBF00E00CBF12E0A0E0B2E0E3
:10029000E4E9F6E100E00BBF02C007900D92A03246
:1002A000B107D9F722E0A0E2B2E001C01D92A33568
:1002B000B207E1F712E0CAE7D2E000E006C02297F9
:1002C0000109FE010BBF0E94E408C837D10780E096
:1002D0000807A9F70E9480070C94480B0C940000B3
:1002E00062E083E00E94E70662E082E00E94E706A7
:1002F00062E085E10E94E70661E080E40E94E70693
:1003000061E081E40E94E70661E082E40E94E70682
:1003100061E083E40E94E70661E084E40E94E7066E
:1003200061E085E40E94E70681E00E946E069093FA
:1003300041028093400280E00E946E0690933F024B
:1003400080933E0220E042E060E180E292E00C9483
:100350008504809142029091430220913E023091A7
:100360003F02821B930B9C0197FF04C02227332777
:10037000281B390BE0914402F09145026091400244
:100380007091410225363105A4F0AF01461B570B91
:1003900057FF03C0519541955109421753074CF43B
:1003A000181619061CF48FEF9FEF18C081E090E03B
:1003B00015C0CF01861B970BAC0197FF04C04427E3
:1003C0005527481B590B4536510584F0241735072E
:1003D0006CF4181619063CF484E090E090933D020A
:1003E00080933C0207C08CEF9FEFF8CF10923D0244
:1003F00010923C028091060290910702FC01EE0FE0
:10040000FF1FE85FFD4F2081318140913C025091F8
:100410003D02240F351F253B31051CF024EB30E055
:1004200003C0121613061CF43183208302C011820C
:10043000108261E0805C0E94200780913A0260E0B7
:10044000805C0E94200764E670E080E090E00C94FD
:10045000D905CF93DF93CDB7DEB72C970FB6F894BD
:10046000DEBF0FBECDBF40E060E080E292E00E94C0
:100470006B0460910802709109024AE0CE01079670
:100480000E946B08BE01695F7F4FCE0101960E94FA
:100490004A0865E172E0CE0101960E94C308BC01E2
:1004A00080E292E00E94B707CE0101960E94C50744
:1004B000CE0107960E94C50740E065E080E292E029
:1004C0000E946B0460910A0270910B024AE0CE0117
:1004D00007960E946B08BE01695F7F4FCE010196AF
:1004E0000E944A0865E172E0CE0101960E94C308AD
:1004F000BC0180E292E00E94B707CE0101960E9403
:10050000C507CE0107960E94C50740E06AE080E279
:1005100092E00E946B0460910C0270910D024AE01F
:10052000CE0107960E946B08BE01695F7F4FCE0126
:1005300001960E944A0865E172E0CE0101960E9490
:10054000C308BC0180E292E00E94B707CE01019689
:100550000E94C507CE0107960E94C50741E060E0F2
:1005600080E292E00E946B0460910E0270910F0293
:100570004AE0CE0107960E946B08BE01695F7F4F7B
:10058000CE0101960E944A0865E172E0CE01019613
:100590000E94C308BC0180E292E00E94B707CE012E
:1005A00001960E94C507CE0107960E94C50741E04B
:1005B00065E080E292E00E946B046091100270910D
:1005C00011024AE0CE0107960E946B08BE01695FE6
:1005D0007F4FCE0101960E944A0865E172E0CE018C
:1005E00001960E94C308BC0180E292E00E94B70716
:1005F000CE0101960E94C507CE0107960E94C5074D
:1006000041E06AE080E292E00E946B046091120295
:10061000709113024AE0CE0107960E946B08BE015A
:10062000695F7F4FCE0101960E944A0865E172E042
:10063000CE0101960E94C308BC0180E292E00E94B4
:10064000B707CE0101960E94C507CE0107960E940A
:10065000C50781E00E946E06909345028093440294
:1006600080E00E946E06909343028093420283E0F2
:100670000E945607892B31F48091380290913902FB
:10068000019771F082E00E945607892B09F055C04E
:100690008091380290913902019709F04EC01AC03A
:1006A000109239021092380280910602909107024E
:1006B00090933B0280933A020197909307028093B4
:1006C000060297FF1EC085E090E09093070280939A
:1006D000060217C010923902109238028091060269
:1006E0009091070290933B0280933A020196909377
:1006F000070280930602069724F0109207021092D8
:10070000060285E10E945607892B61F4E0910602FA
:10071000F0910702EE0FFF1FE85FFD4F8AE590E0C2
:10072000918380830E94A9012C960FB6F894DEBFB6
:100730000FBECDBFDF91CF91089581E090E09093FF
:10074000390280933802DDCFAF92CF92EF920F93B0
:1007500034E1A32E43E1C42E52E1E52E01E120E174
:100760004FE06EE080E292E00E9440050F91EF9032
:10077000CF90AF900895CF93DF93EC0160E08E812E
:100780000E94200781E090E00E94010661E08E81D6
:100790000E94200781E090E00E94010660E08E81C7
:1007A0000E94200784E690E0DF91CF910C9401062F
:1007B000CF92DF92EF92FF920F931F93CF93DF932D
:1007C0007C01C0E0D0E0C62ED12C87010C0F1D1F8C
:1007D00061E0F80187810E94E706B6010C2E02C095
:1007E000759567950A94E2F76170F80187810E9418
:1007F00020072196C430D10541F7C701DF91CF9181
:100800001F910F91FF90EF90DF90CF900C94BB035E
:10081000CF92DF92EF92FF920F931F93CF93DF93CC
:100820007C01C0E0D0E0C62ED12C87010C0F1D1F2B
:1008300061E0F80187810E94E706B6010C2E02C034
:10084000759567950A94E2F76170F80187810E94B7
:1008500020072196C830D10541F7C701DF91CF911C
:100860001F910F91FF90EF90DF90CF900C94BB03FE
:100870001F93CF93DF93EC01162F642F8C810E947E
:1008800020078D818F3F19F060E00E9420078F853F
:10089000612F84FF06C0CE01DF91CF911F910C9490
:1008A000080470E084E0759567958A95E1F7CE01BC
:1008B0000E94D803612FCE01DF91CF911F910C943C
:1008C000D80340E00C94380461E00E94610480ED9C
:1008D00097E00C940106443008F043E0FC012389C2
:1008E000421710F04FEF420FFC01E40FF11D248975
:1008F000260F2068622F0C946104FC016089262F6A
:100900002460208B6C600C946104CF93DF93EC0126
:10091000423018F08F8588608F874B8B1C8A80E46B
:100920008D8B6E8B70E0605C7F4F6F8B222329F084
:10093000413019F48F8584608F8780E593EC0E94A5
:10094000010660E08C810E94200760E08E810E9499
:1009500020078D818F3F19F060E00E9420076F858E
:1009600064FD1DC063E0CE010E94D80384E991E1DB
:100970000E94010663E0CE010E94D80384E991E160
:100980000E94010663E0CE010E94D80386E990E050
:100990000E94010662E0CE010E94D80316C0606288
:1009A000CE010E94610484E991E10E9401066F85F5
:1009B0006062CE010E94610486E990E00E94010617
:1009C0006F856062CE010E9461046F856062CE0116
:1009D0000E94610484E0888BCE010E947D04CE01D8
:1009E0000E94640482E0898B66E0CE01DF91CF91A2
:1009F0000C9461046F927F928F92AF92CF92EF929C
:100A00000F931F93CF93DF93CDB7DEB73C01162F23
:100A1000842F5E854F8538899989F30184832583E6
:100A20000683E782C086A1868286538744873587FE
:100A3000968761E00E94E706F30185818F3F19F0F8
:100A400061E00E94E70661E0F30186810E94E7060B
:100A5000112319F0F301178603C080E1F3018787A2
:100A600020E041E060E1C301DF91CF911F910F9140
:100A7000EF90CF90AF908F907F906F900C94850403
:100A80008F92AF92CF92EF920F93DC0113961C924C
:100A90001E921297ECE1F2E0ED93FC931F921F92ED
:100AA0001F921F928A2CAC2CCE2CE02E022F242FCA
:100AB000462F61E00E94FA040F900F900F900F9064
:100AC0000F91EF90CF90AF908F90089541E00E94EA
:100AD000380481E090E008951F920F920FB60F92B4
:100AE00011242F933F938F939F93AF93BF93809144
:100AF000470290914802A0914902B0914A02309178
:100B0000460223E0230F2D3720F40196A11DB11DCD
:100B100005C026E8230F0296A11DB11D20934602B1
:100B20008093470290934802A0934902B0934A02EF
:100B300080914B0290914C02A0914D02B0914E02D7
:100B40000196A11DB11D80934B0290934C02A0937E
:100B50004D02B0934E02BF91AF919F918F913F9103
:100B60002F910F900FBE0F901F9018953FB7F894DC
:100B700080914B0290914C02A0914D02B0914E0297
:100B800026B5A89B05C02F3F19F00196A11DB11DE8
:100B90003FBF6627782F892F9A2F620F711D811D05
:100BA000911D42E0660F771F881F991F4A95D1F764
:100BB0000895CF92DF92EF92FF92CF93DF936B0174
:100BC0007C010E94B605EB01C114D104E104F104DB
:100BD00089F00E94DD080E94B6056C1B7D0B683E03
:100BE000734090F381E0C81AD108E108F108C851B8
:100BF000DC4FEACFDF91CF91FF90EF90DF90CF9065
:100C000008958230910538F0880F991F880F991F39
:100C100005970197F1F70895789484B5826084BDB3
:100C200084B5816084BD85B5826085BD85B58160F0
:100C300085BDEEE6F0E0808181608083E1E8F0E050
:100C40001082808182608083808181608083E0E87F
:100C5000F0E0808181608083E1EBF0E0808184605E
:100C60008083E0EBF0E0808181608083E1E9F0E067
:100C7000808182608083808181608083E0E9F0E010
:100C8000808181608083E1EAF0E0808182608083FE
:100C9000808181608083E0EAF0E0808181608083F0
:100CA000E1E2F1E0808182608083808181608083E5
:100CB000E0E2F1E0808181608083EAE7F0E080811A
:100CC0008460808380818260808380818160808372
:100CD0008081806880831092C1000895863308F077
:100CE000865320917B00982F9870277F922B9093AA
:100CF0007B0087702091140290E4299F90011124B9
:100D0000822B80937C0080917A00806480937A00AB
:100D100080917A0086FDFCCF809178002091790047
:100D200090E0922B089590E0FC013197E231F105BB
:100D300008F04CC0EE58FF4F0C94DE088091800004
:100D40008F7703C0809180008F7D8093800008950D
:100D500080918000877FF9CF84B58F7702C084B5FA
:100D60008F7D84BD08958091B0008F7703C08091FE
:100D7000B0008F7D8093B0000895809190008F77B0
:100D800007C0809190008F7D03C080919000877F85
:100D90008093900008958091A0008F7707C0809184
:100DA000A0008F7D03C08091A000877F8093A0006A
:100DB0000895809120018F7707C0809120018F7D59
:100DC00003C080912001877F809320010895CF93F5
:100DD000DF9390E0FC01E256FE4F2491FC01EC51C0
:100DE000FE4F8491882349F190E0880F991FFC0100
:100DF000E25AFD4FA591B4918C5B9D4FFC01C591CA
:100E0000D4919FB7611108C0F8948C9120958223EA
:100E10008C93888182230AC0623051F4F8948C91BB
:100E2000322F309583238C938881822B888304C052
:100E3000F8948C91822B8C939FBFDF91CF91089572
:100E40000F931F93CF93DF931F92CDB7DEB7282F59
:100E500030E0F901E85AFE4F8491F901E256FE4F65
:100E60001491F901EC51FE4F04910023C9F088233D
:100E700021F069830E9493066981E02FF0E0EE0F74
:100E8000FF1FEC5BFD4FA591B4919FB7F8948C9137
:100E9000611103C01095812301C0812B8C939FBFEA
:100EA0000F90DF91CF911F910F910895CF93DF9312
:100EB000282F30E0F901E85AFE4F8491F901E256FB
:100EC000FE4FD491F901EC51FE4FC491CC2391F027
:100ED00081110E949306EC2FF0E0EE0FFF1FE65DFC
:100EE000FD4FA591B4912C912D2381E090E021F448
:100EF00080E002C080E090E0DF91CF9108950895F6
:100F00000E940C060E947F070E947001C0E0D0E0A2
:100F10000E9429022097E1F30E940000F9CFCF92AE
:100F2000DF92EF92FF920F931F93CF93DF936C01A9
:100F30007A01EB01E60EF71E00E010E0CE15DF05AA
:100F400061F06991D601ED91FC910190F081E02D65
:100F5000C6011995080F191FF1CFC801DF91CF9174
:100F60001F910F91FF90EF90DF90CF900895DC01DB
:100F7000ED91FC91DB0114964D915C9115976D916B
:100F80007C910280F381E02D1994FC018081918194
:100F90000C948009CF93DF93EC01888199810097AD
:100FA00011F00E948009198218821D821C821B8206
:100FB0001A82DF91CF9108950F931F93CF93DF9300
:100FC000EC018B016F5F7F4F888199810E940F0A2E
:100FD000009731F0998388831B830A8381E001C0E5
:100FE00080E0DF91CF911F910F910895CF93DF9310
:100FF000EC0188819981892B29F08A819B81861750
:10100000970760F4CE010E94DC07882341F08C81B1
:101010009D81892B19F4E881F981108281E0DF91AB
:10102000CF910895EF92FF920F931F93CF93DF9389
:10103000EC017B018A01BA010E94F607811104C00C
:10104000CE010E94CA0707C01D830C83B7018881A7
:1010500099810E94010BCE01DF91CF911F910F91D9
:10106000FF90EF900895CF93DF93EC01FB0186177B
:10107000970761F0608171816115710529F04481E4
:1010800055810E94120802C00E94CA07CE01DF915A
:10109000CF910895FC011182108213821282158271
:1010A00014820C943308CF93DF93EC016115710522
:1010B00061F0FB0101900020E9F7AF0141505109B7
:1010C000461B570B0E94120802C00E94CA07CE019D
:1010D000DF91CF9108950F931F93CF93DF93CDB7F7
:1010E000DEB762970FB6F894DEBF0FBECDBF8C019E
:1010F000CB01F801118210821382128215821482B0
:1011000050E0BE016F5F7F4F0E94080BBE016F5F12
:101110007F4FC8010E94530862960FB6F894DEBF55
:101120000FBECDBFDF91CF911F910F910895EF9228
:10113000FF920F931F93CF93DF93EC017B010C8100
:101140001D816115710511F480E016C0411551052E
:1011500091F0040F151FB8010E94F6078823A1F330
:10116000288139818C819D81B701820F931F0E9454
:10117000010B1D830C8381E0DF91CF911F910F91B3
:10118000FF90EF900895CF93DF93EC016115710507
:1011900069F0FB0101900020E9F7AF0141505109CE
:1011A000461B570B0E949708811103C0CE010E9475
:1011B000CA07CE01DF91CF9108950895EE0FFF1F6A
:1011C0000590F491E02D19940790F691E02D199473
:1011D000CF93DF938230910510F482E090E0E091AC
:1011E0005102F091520220E030E0A0E0B0E03097F0
:1011F00039F14081518148175907B8F0481759070C
:1012000071F482819381109729F013969C938E93A9
:1012100012972CC0909352028093510227C021153F
:10122000310531F04217530718F0A901DB0101C065
:10123000EF019A01BD01DF010280F381E02DD7CFDC
:1012400021153105F9F0281B390B2430310580F4C4
:101250008A819B816115710521F0FB019383828353
:1012600004C09093520280935102FE01329644C012
:10127000FE01E20FF31F81939193225031093983CC
:1012800028833AC020914F0230915002232B41F421
:1012900020910202309103023093500220934F02BA
:1012A00020910002309101022115310541F42DB742
:1012B0003EB74091040250910502241B350BE0918A
:1012C0004F02F0915002E217F307A0F42E1B3F0BE0
:1012D0002817390778F0AC014E5F5F4F24173507A8
:1012E00048F04E0F5F1F5093500240934F0281937E
:1012F000919302C0E0E0F0E0CF01DF91CF9108953B
:10130000CF93DF93009709F487C0FC0132971382D3
:101310001282C0915102D0915202209781F4208113
:101320003181280F391F80914F029091500282170E
:10133000930779F5F0935002E0934F026DC0DE0100
:1013400020E030E0AE17BF0750F412964D915C914B
:1013500013979D014115510509F1DA01F3CFB383CC
:10136000A28340815181840F951F8A179B0771F4D6
:101370008D919C911197840F951F02969183808384
:1013800012968D919C911397938382832115310539
:1013900029F4F0935202E09351023EC0D901139612
:1013A000FC93EE9312974D915D91A40FB51FEA1730
:1013B000FB0779F480819181840F951F0296D901F2
:1013C00011969C938E938281938113969C938E9316
:1013D0001297E0E0F0E08A819B81009719F0FE010E
:1013E000EC01F9CFCE01029628813981820F931F3B
:1013F00020914F02309150022817390769F4309735
:1014000029F4109252021092510202C013821282E9
:10141000D0935002C0934F02DF91CF9108956F9205
:101420007F928F929F92AF92BF92CF92DF92EF9274
:10143000FF920F931F93CF93DF93EC01CB01209783
:1014400081F4DF91CF911F910F91FF90EF90DF908A
:10145000CF90BF90AF909F908F907F906F900C94A3
:10146000E808FE01E60FF71F9E0122503109E2173E
:10147000F30708F4ACC0D9010D911C911197061720
:101480001707B8F00530110508F49FC0A8014450B3
:1014900051094617570708F498C002501109061B56
:1014A000170B019311936D937C93CF010E948009D8
:1014B0008CC05B01A01AB10A4E01800E911EA09152
:1014C0005102B0915202612C712C60E070E01097D3
:1014D00009F449C0A815B905C9F5ED90FC9011971C
:1014E000670142E0C40ED11CCA14DB0478F1470145
:1014F0008A189B08640142E0C40ED11C1296BC906D
:1015000012971396AC91B5E0CB16D10440F0B2829D
:10151000A38391828082D9018D939C9309C00E5F31
:101520001F4F0E0D1F1DF90111830083EB2DFA2FA4
:101530006115710531F0DB011396FC93EE93129760
:1015400044C0F0935202E09351023FC06D917C91F0
:1015500011976616770608F43B01BD0112960D90AF
:10156000BC91A02DB4CF60914F02709150026815CC
:101570007905E9F468167906D0F44091000250919B
:1015800001024115510541F44DB75EB76091040267
:1015900070910502461B570BE417F507C0F4F09352
:1015A0005002E0934F02F901918380830EC00E94A4
:1015B000E8087C01009759F0A801BE010E94F80AD2
:1015C000CE010E948009C70104C0CE0102C080E0A4
:1015D00090E0DF91CF911F910F91FF90EF90DF90FE
:1015E000CF90BF90AF909F908F907F906F90089515
:1015F000FB01DC0102C001900D9241505040D8F730
:101600000895FB01DC0101900D920020E1F708959F
:101610004532510520F4423010F00C94130BFB01BD
:101620001082CB010895BB274A3031F4992322F46C
:10163000BDE2909581959F4F0C941F0BBB27FB013A
:101640005527AA27880F991FAA1FA41710F0A41BBB
:1016500083955051B9F7A05DAA3308F0A95DA19315
:10166000009779F7B111B1931192CB010C94380B1B
:10167000DC01FC01672F71917723E1F7329704C0F9
:101680007C916D9370836291AE17BF07C8F3089584
:04169000F894FFCFFC
:1016940000005302800005005A005A005A005A0004
:1016A4005A005A00012020000000000066058F0740
:00000001FF
